{
  "contractName": "Donates",
  "abi": [
    {
      "inputs": [
        {
          "internalType": "string",
          "name": "_name",
          "type": "string"
        }
      ],
      "name": "setName",
      "outputs": [],
      "stateMutability": "nonpayable",
      "type": "function"
    },
    {
      "inputs": [],
      "name": "donate",
      "outputs": [],
      "stateMutability": "payable",
      "type": "function",
      "payable": true
    },
    {
      "inputs": [],
      "name": "getUsers",
      "outputs": [
        {
          "components": [
            {
              "internalType": "string",
              "name": "name",
              "type": "string"
            },
            {
              "internalType": "uint256",
              "name": "create_at",
              "type": "uint256"
            }
          ],
          "internalType": "struct Donates.User[]",
          "name": "",
          "type": "tuple[]"
        }
      ],
      "stateMutability": "view",
      "type": "function",
      "constant": true
    },
    {
      "inputs": [],
      "name": "donateList",
      "outputs": [
        {
          "components": [
            {
              "components": [
                {
                  "internalType": "string",
                  "name": "name",
                  "type": "string"
                },
                {
                  "internalType": "uint256",
                  "name": "create_at",
                  "type": "uint256"
                }
              ],
              "internalType": "struct Donates.User",
              "name": "user",
              "type": "tuple"
            },
            {
              "internalType": "uint256",
              "name": "amount",
              "type": "uint256"
            },
            {
              "internalType": "uint256",
              "name": "donation_at",
              "type": "uint256"
            }
          ],
          "internalType": "struct Donates.Record[]",
          "name": "",
          "type": "tuple[]"
        }
      ],
      "stateMutability": "view",
      "type": "function",
      "constant": true
    },
    {
      "inputs": [
        {
          "internalType": "address",
          "name": "addr",
          "type": "address"
        }
      ],
      "name": "getBalance",
      "outputs": [
        {
          "internalType": "uint256",
          "name": "",
          "type": "uint256"
        }
      ],
      "stateMutability": "view",
      "type": "function",
      "constant": true
    },
    {
      "inputs": [],
      "name": "donateAmount",
      "outputs": [
        {
          "internalType": "uint256",
          "name": "",
          "type": "uint256"
        }
      ],
      "stateMutability": "view",
      "type": "function",
      "constant": true
    }
  ],
  "bytecode": "0x608060405234801561001057600080fd5b50610e49806100206000396000f3fe6080604052600436106100545760003560e01c8062ce8e3e14610059578063965044d514610084578063987543ff146100af578063c47f0027146100da578063ed88c68e14610103578063f8b2cb4f1461010d575b600080fd5b34801561006557600080fd5b5061006e61014a565b60405161007b9190610b26565b60405180910390f35b34801561009057600080fd5b50610099610245565b6040516100a69190610b68565b60405180910390f35b3480156100bb57600080fd5b506100c461024d565b6040516100d19190610b04565b60405180910390f35b3480156100e657600080fd5b5061010160048036038101906100fc9190610862565b610370565b005b61010b610505565b005b34801561011957600080fd5b50610134600480360381019061012f9190610839565b610686565b6040516101419190610b68565b60405180910390f35b60606002805480602002602001604051908101604052809291908181526020016000905b8282101561023c57838290600052602060002090600202016040518060400160405290816000820180546101a190610d01565b80601f01602080910402602001604051908101604052809291908181526020018280546101cd90610d01565b801561021a5780601f106101ef5761010080835404028352916020019161021a565b820191906000526020600020905b8154815290600101906020018083116101fd57829003601f168201915b505050505081526020016001820154815250508152602001906001019061016e565b50505050905090565b600047905090565b60606003805480602002602001604051908101604052809291908181526020016000905b828210156103675783829060005260206000209060040201604051806060016040529081600082016040518060400160405290816000820180546102b490610d01565b80601f01602080910402602001604051908101604052809291908181526020018280546102e090610d01565b801561032d5780601f106103025761010080835404028352916020019161032d565b820191906000526020600020905b81548152906001019060200180831161031057829003601f168201915b5050505050815260200160018201548152505081526020016002820154815260200160038201548152505081526020019060010190610271565b50505050905090565b80600081511161037f57600080fd5b600080836040516103909190610aed565b908152602001604051809103902060009054906101000a900473ffffffffffffffffffffffffffffffffffffffff1690506103ca816106a7565b600060405180604001604052808581526020014281525090506002819080600181540180825580915050600190039060005260206000209060020201600090919091909150600082015181600001908051906020019061042b929190610719565b5060208201518160010155505080600160003373ffffffffffffffffffffffffffffffffffffffff1673ffffffffffffffffffffffffffffffffffffffff1681526020019081526020016000206000820151816000019080519060200190610494929190610719565b5060208201518160010155905050336000856040516104b39190610aed565b908152602001604051809103902060006101000a81548173ffffffffffffffffffffffffffffffffffffffff021916908373ffffffffffffffffffffffffffffffffffffffff16021790555050505050565b6000600160003373ffffffffffffffffffffffffffffffffffffffff1673ffffffffffffffffffffffffffffffffffffffff16815260200190815260200160002060405180604001604052908160008201805461056190610d01565b80601f016020809104026020016040519081016040528092919081815260200182805461058d90610d01565b80156105da5780601f106105af576101008083540402835291602001916105da565b820191906000526020600020905b8154815290600101906020018083116105bd57829003601f168201915b505050505081526020016001820154815250509050600060405180606001604052808381526020013481526020014281525090506003819080600181540180825580915050600190039060005260206000209060040201600090919091909150600082015181600001600082015181600001908051906020019061065f929190610719565b50602082015181600101555050602082015181600201556040820151816003015550505050565b60008173ffffffffffffffffffffffffffffffffffffffff16319050919050565b600073ffffffffffffffffffffffffffffffffffffffff168173ffffffffffffffffffffffffffffffffffffffff1614610716576040517f08c379a000000000000000000000000000000000000000000000000000000000815260040161070d90610b48565b60405180910390fd5b50565b82805461072590610d01565b90600052602060002090601f016020900481019282610747576000855561078e565b82601f1061076057805160ff191683800117855561078e565b8280016001018555821561078e579182015b8281111561078d578251825591602001919060010190610772565b5b50905061079b919061079f565b5090565b5b808211156107b85760008160009055506001016107a0565b5090565b60006107cf6107ca84610ba8565b610b83565b9050828152602081018484840111156107e757600080fd5b6107f2848285610cbf565b509392505050565b60008135905061080981610dfc565b92915050565b600082601f83011261082057600080fd5b81356108308482602086016107bc565b91505092915050565b60006020828403121561084b57600080fd5b6000610859848285016107fa565b91505092915050565b60006020828403121561087457600080fd5b600082013567ffffffffffffffff81111561088e57600080fd5b61089a8482850161080f565b91505092915050565b60006108af8383610a42565b905092915050565b60006108c38383610a92565b905092915050565b60006108d682610bf9565b6108e08185610c34565b9350836020820285016108f285610bd9565b8060005b8581101561092e578484038952815161090f85826108a3565b945061091a83610c1a565b925060208a019950506001810190506108f6565b50829750879550505050505092915050565b600061094b82610c04565b6109558185610c45565b93508360208202850161096785610be9565b8060005b858110156109a3578484038952815161098485826108b7565b945061098f83610c27565b925060208a0199505060018101905061096b565b50829750879550505050505092915050565b60006109c082610c0f565b6109ca8185610c56565b93506109da818560208601610cce565b6109e381610dc2565b840191505092915050565b60006109f982610c0f565b610a038185610c78565b9350610a13818560208601610cce565b80840191505092915050565b6000610a2c601283610c67565b9150610a3782610dd3565b602082019050919050565b60006060830160008301518482036000860152610a5f8282610a92565b9150506020830151610a746020860182610acf565b506040830151610a876040860182610acf565b508091505092915050565b60006040830160008301518482036000860152610aaf82826109b5565b9150506020830151610ac46020860182610acf565b508091505092915050565b610ad881610cb5565b82525050565b610ae781610cb5565b82525050565b6000610af982846109ee565b915081905092915050565b60006020820190508181036000830152610b1e81846108cb565b905092915050565b60006020820190508181036000830152610b408184610940565b905092915050565b60006020820190508181036000830152610b6181610a1f565b9050919050565b6000602082019050610b7d6000830184610ade565b92915050565b6000610b8d610b9e565b9050610b998282610d33565b919050565b6000604051905090565b600067ffffffffffffffff821115610bc357610bc2610d93565b5b610bcc82610dc2565b9050602081019050919050565b6000819050602082019050919050565b6000819050602082019050919050565b600081519050919050565b600081519050919050565b600081519050919050565b6000602082019050919050565b6000602082019050919050565b600082825260208201905092915050565b600082825260208201905092915050565b600082825260208201905092915050565b600082825260208201905092915050565b600081905092915050565b6000610c8e82610c95565b9050919050565b600073ffffffffffffffffffffffffffffffffffffffff82169050919050565b6000819050919050565b82818337600083830152505050565b60005b83811015610cec578082015181840152602081019050610cd1565b83811115610cfb576000848401525b50505050565b60006002820490506001821680610d1957607f821691505b60208210811415610d2d57610d2c610d64565b5b50919050565b610d3c82610dc2565b810181811067ffffffffffffffff82111715610d5b57610d5a610d93565b5b80604052505050565b7f4e487b7100000000000000000000000000000000000000000000000000000000600052602260045260246000fd5b7f4e487b7100000000000000000000000000000000000000000000000000000000600052604160045260246000fd5b6000601f19601f8301169050919050565b7f74686973206e616d652069732075736572640000000000000000000000000000600082015250565b610e0581610c83565b8114610e1057600080fd5b5056fea26469706673582212205bb84dccaca62b7028e01f851e69c3bc017fe4145f8b16518081f1a9db7f575564736f6c63430008040033",
  "immutableReferences": {},
  "source": "// SPDX-License-Identifier: GPL-3.0\npragma solidity >=0.7.0 <0.9.0;\ncontract Donates {\n    struct User {\n        string name;\n        uint create_at; //\n    }\n    mapping (string => address) findAddrByName;\n    mapping (address => User) findUserByAddr;\n    User[]  users;\n    struct Record {\n        User user;\n        uint amount; //\n        uint donation_at; //\n    }\n    Record[] records;\n    //\n    function setName(string memory _name) public checkNameLen(_name) {\n        address owner = findAddrByName[_name];\n        emptyAddr(owner);\n        User memory user = User(_name,block.timestamp);\n        users.push(user);\n        findUserByAddr[msg.sender] = user;\n        findAddrByName[_name] = msg.sender;\n    }\n    //0\n    modifier checkNameLen(string memory _name){\n        require(bytes(_name).length > 0);\n        _;\n    }\n    //\n    function emptyAddr(address owner) internal pure{\n        require(owner == address(0),\"this name is userd\");\n    }\n    //\n    function donate() public payable  {\n        User memory user = findUserByAddr[msg.sender];\n        Record memory  r = Record(user,msg.value,block.timestamp);\n        records.push(r) ;\n    }\n    //\n    function getUsers() public view returns(User[] memory ){\n        return users;\n    }\n    //\n    function donateList() public view returns(Record[] memory){\n        return records;\n    }\n    //\n    function getBalance(address addr) public view returns(uint){\n        return addr.balance;\n    }\n    //\n    function donateAmount() public view returns(uint){\n        return address(this).balance;\n    }\n}",
  "sourcePath": "/root/RemoteWorking/donate/contracts/Donates.sol",
  "compiler": {
    "name": "solc",
    "version": "0.8.4+commit.c7e474f2.Emscripten.clang"
  },
  "schemaVersion": "3.4.7",
  "updatedAt": "2022-06-24T01:10:37.875Z",
  "networkType": "ethereum",
  "devdoc": {
    "kind": "dev",
    "methods": {},
    "version": 1
  },
  "userdoc": {
    "kind": "user",
    "methods": {},
    "version": 1
  }
}